{
  "_format": "hh-sol-artifact-1",
  "contractName": "TestMaxRetry",
  "sourceName": "contracts/TestMaxRetry.sol",
  "abi": [
    {
      "inputs": [
        {
          "internalType": "address",
          "name": "sender",
          "type": "address"
        },
        {
          "internalType": "string[]",
          "name": "urls",
          "type": "string[]"
        },
        {
          "internalType": "bytes",
          "name": "callData",
          "type": "bytes"
        },
        {
          "internalType": "bytes4",
          "name": "callbackFunction",
          "type": "bytes4"
        },
        {
          "internalType": "bytes",
          "name": "extraData",
          "type": "bytes"
        }
      ],
      "name": "OffchainLookup",
      "type": "error"
    },
    {
      "anonymous": false,
      "inputs": [
        {
          "indexed": true,
          "internalType": "address",
          "name": "previousOwner",
          "type": "address"
        },
        {
          "indexed": true,
          "internalType": "address",
          "name": "newOwner",
          "type": "address"
        }
      ],
      "name": "OwnershipTransferred",
      "type": "event"
    },
    {
      "inputs": [
        {
          "internalType": "address",
          "name": "owner",
          "type": "address"
        }
      ],
      "name": "balanceOf",
      "outputs": [
        {
          "internalType": "uint256",
          "name": "",
          "type": "uint256"
        }
      ],
      "stateMutability": "view",
      "type": "function"
    },
    {
      "inputs": [
        {
          "internalType": "bytes",
          "name": "result",
          "type": "bytes"
        },
        {
          "internalType": "bytes",
          "name": "extraData",
          "type": "bytes"
        }
      ],
      "name": "balanceOfWithSig",
      "outputs": [
        {
          "internalType": "uint256",
          "name": "",
          "type": "uint256"
        }
      ],
      "stateMutability": "view",
      "type": "function"
    },
    {
      "inputs": [],
      "name": "owner",
      "outputs": [
        {
          "internalType": "address",
          "name": "",
          "type": "address"
        }
      ],
      "stateMutability": "view",
      "type": "function"
    },
    {
      "inputs": [],
      "name": "renounceOwnership",
      "outputs": [],
      "stateMutability": "nonpayable",
      "type": "function"
    },
    {
      "inputs": [
        {
          "internalType": "string[]",
          "name": "urls_",
          "type": "string[]"
        }
      ],
      "name": "setUrls",
      "outputs": [],
      "stateMutability": "nonpayable",
      "type": "function"
    },
    {
      "inputs": [
        {
          "internalType": "address",
          "name": "newOwner",
          "type": "address"
        }
      ],
      "name": "transferOwnership",
      "outputs": [],
      "stateMutability": "nonpayable",
      "type": "function"
    },
    {
      "inputs": [
        {
          "internalType": "uint256",
          "name": "",
          "type": "uint256"
        }
      ],
      "name": "urls",
      "outputs": [
        {
          "internalType": "string",
          "name": "",
          "type": "string"
        }
      ],
      "stateMutability": "view",
      "type": "function"
    }
  ],
  "bytecode": "0x608060405234801561001057600080fd5b5061002d61002261003260201b60201c565b61003a60201b60201c565b6100fe565b600033905090565b60008060009054906101000a900473ffffffffffffffffffffffffffffffffffffffff169050816000806101000a81548173ffffffffffffffffffffffffffffffffffffffff021916908373ffffffffffffffffffffffffffffffffffffffff1602179055508173ffffffffffffffffffffffffffffffffffffffff168173ffffffffffffffffffffffffffffffffffffffff167f8be0079c531659141344cd1fd0a4f28419497f9722a3daafe3b4186f6b6457e060405160405180910390a35050565b6111c68061010d6000396000f3fe608060405234801561001057600080fd5b506004361061007d5760003560e01c8063715018a61161005b578063715018a6146100fe578063796676be146101085780638da5cb5b14610138578063f2fde38b146101565761007d565b80635f52f060146100825780636cc895a9146100b257806370a08231146100ce575b600080fd5b61009c60048036038101906100979190610a9c565b610172565b6040516100a99190610e0c565b60405180910390f35b6100cc60048036038101906100c79190610a5b565b610267565b005b6100e860048036038101906100e39190610a09565b6102fd565b6040516100f59190610e0c565b60405180910390f35b6101066103e0565b005b610122600480360381019061011d9190610b11565b610468565b60405161012f9190610daa565b60405180910390f35b610140610514565b60405161014d9190610d27565b60405180910390f35b610170600480360381019061016b9190610a09565b61053d565b005b60008083838101906101849190610a32565b905030600163ce93871560e01b836040516024016101a29190610d27565b604051602081830303815290604052907bffffffffffffffffffffffffffffffffffffffffffffffffffffffff19166020820180517bffffffffffffffffffffffffffffffffffffffffffffffffffffffff8381831617835250505050635f52f06060e01b846040516020016102189190610d27565b6040516020818303038152906040526040517f556f183000000000000000000000000000000000000000000000000000000000815260040161025e959493929190610d42565b60405180910390fd5b61026f610635565b73ffffffffffffffffffffffffffffffffffffffff1661028d610514565b73ffffffffffffffffffffffffffffffffffffffff16146102e3576040517f08c379a00000000000000000000000000000000000000000000000000000000081526004016102da90610dec565b60405180910390fd5b80600190805190602001906102f9929190610701565b5050565b600030600163ce93871560e01b8460405160240161031b9190610d27565b604051602081830303815290604052907bffffffffffffffffffffffffffffffffffffffffffffffffffffffff19166020820180517bffffffffffffffffffffffffffffffffffffffffffffffffffffffff8381831617835250505050635f52f06060e01b856040516020016103919190610d27565b6040516020818303038152906040526040517f556f18300000000000000000000000000000000000000000000000000000000081526004016103d7959493929190610d42565b60405180910390fd5b6103e8610635565b73ffffffffffffffffffffffffffffffffffffffff16610406610514565b73ffffffffffffffffffffffffffffffffffffffff161461045c576040517f08c379a000000000000000000000000000000000000000000000000000000000815260040161045390610dec565b60405180910390fd5b610466600061063d565b565b6001818154811061047857600080fd5b90600052602060002001600091509050805461049390611001565b80601f01602080910402602001604051908101604052809291908181526020018280546104bf90611001565b801561050c5780601f106104e15761010080835404028352916020019161050c565b820191906000526020600020905b8154815290600101906020018083116104ef57829003601f168201915b505050505081565b60008060009054906101000a900473ffffffffffffffffffffffffffffffffffffffff16905090565b610545610635565b73ffffffffffffffffffffffffffffffffffffffff16610563610514565b73ffffffffffffffffffffffffffffffffffffffff16146105b9576040517f08c379a00000000000000000000000000000000000000000000000000000000081526004016105b090610dec565b60405180910390fd5b600073ffffffffffffffffffffffffffffffffffffffff168173ffffffffffffffffffffffffffffffffffffffff161415610629576040517f08c379a000000000000000000000000000000000000000000000000000000000815260040161062090610dcc565b60405180910390fd5b6106328161063d565b50565b600033905090565b60008060009054906101000a900473ffffffffffffffffffffffffffffffffffffffff169050816000806101000a81548173ffffffffffffffffffffffffffffffffffffffff021916908373ffffffffffffffffffffffffffffffffffffffff1602179055508173ffffffffffffffffffffffffffffffffffffffff168173ffffffffffffffffffffffffffffffffffffffff167f8be0079c531659141344cd1fd0a4f28419497f9722a3daafe3b4186f6b6457e060405160405180910390a35050565b828054828255906000526020600020908101928215610750579160200282015b8281111561074f57825182908051906020019061073f929190610761565b5091602001919060010190610721565b5b50905061075d91906107e7565b5090565b82805461076d90611001565b90600052602060002090601f01602090048101928261078f57600085556107d6565b82601f106107a857805160ff19168380011785556107d6565b828001600101855582156107d6579182015b828111156107d55782518255916020019190600101906107ba565b5b5090506107e3919061080b565b5090565b5b8082111561080757600081816107fe9190610828565b506001016107e8565b5090565b5b8082111561082457600081600090555060010161080c565b5090565b50805461083490611001565b6000825580601f106108465750610865565b601f016020900490600052602060002090810190610864919061080b565b5b50565b600061087b61087684610e4c565b610e27565b9050808382526020820190508285602086028201111561089a57600080fd5b60005b858110156108e457813567ffffffffffffffff8111156108bc57600080fd5b8086016108c989826109ca565b8552602085019450602084019350505060018101905061089d565b5050509392505050565b60006109016108fc84610e78565b610e27565b90508281526020810184848401111561091957600080fd5b610924848285610fbf565b509392505050565b60008135905061093b8161114b565b92915050565b60008135905061095081611162565b92915050565b600082601f83011261096757600080fd5b8135610977848260208601610868565b91505092915050565b60008083601f84011261099257600080fd5b8235905067ffffffffffffffff8111156109ab57600080fd5b6020830191508360018202830111156109c357600080fd5b9250929050565b600082601f8301126109db57600080fd5b81356109eb8482602086016108ee565b91505092915050565b600081359050610a0381611179565b92915050565b600060208284031215610a1b57600080fd5b6000610a298482850161092c565b91505092915050565b600060208284031215610a4457600080fd5b6000610a5284828501610941565b91505092915050565b600060208284031215610a6d57600080fd5b600082013567ffffffffffffffff811115610a8757600080fd5b610a9384828501610956565b91505092915050565b60008060008060408587031215610ab257600080fd5b600085013567ffffffffffffffff811115610acc57600080fd5b610ad887828801610980565b9450945050602085013567ffffffffffffffff811115610af757600080fd5b610b0387828801610980565b925092505092959194509250565b600060208284031215610b2357600080fd5b6000610b31848285016109f4565b91505092915050565b6000610b468383610c52565b905092915050565b610b5781610f45565b82525050565b6000610b6882610ed3565b610b728185610f01565b935083602082028501610b8485610ea9565b8060005b85811015610bbf57848403895281610ba08582610b3a565b9450610bab83610ef4565b925060208a01995050600181019050610b88565b50829750879550505050505092915050565b610bda81610f69565b82525050565b6000610beb82610ede565b610bf58185610f12565b9350610c05818560208601610fce565b610c0e816110c2565b840191505092915050565b6000610c2482610ee9565b610c2e8185610f34565b9350610c3e818560208601610fce565b610c47816110c2565b840191505092915050565b60008154610c5f81611001565b610c698186610f23565b94506001821660008114610c845760018114610c9657610cc9565b60ff1983168652602086019350610cc9565b610c9f85610ebe565b60005b83811015610cc157815481890152600182019150602081019050610ca2565b808801955050505b50505092915050565b6000610cdf602683610f34565b9150610cea826110d3565b604082019050919050565b6000610d02602083610f34565b9150610d0d82611122565b602082019050919050565b610d2181610fb5565b82525050565b6000602082019050610d3c6000830184610b4e565b92915050565b600060a082019050610d576000830188610b4e565b8181036020830152610d698187610b5d565b90508181036040830152610d7d8186610be0565b9050610d8c6060830185610bd1565b8181036080830152610d9e8184610be0565b90509695505050505050565b60006020820190508181036000830152610dc48184610c19565b905092915050565b60006020820190508181036000830152610de581610cd2565b9050919050565b60006020820190508181036000830152610e0581610cf5565b9050919050565b6000602082019050610e216000830184610d18565b92915050565b6000610e31610e42565b9050610e3d8282611033565b919050565b6000604051905090565b600067ffffffffffffffff821115610e6757610e66611093565b5b602082029050602081019050919050565b600067ffffffffffffffff821115610e9357610e92611093565b5b610e9c826110c2565b9050602081019050919050565b60008190508160005260206000209050919050565b60008190508160005260206000209050919050565b600081549050919050565b600081519050919050565b600081519050919050565b6000600182019050919050565b600082825260208201905092915050565b600082825260208201905092915050565b600082825260208201905092915050565b600082825260208201905092915050565b6000610f5082610f95565b9050919050565b6000610f6282610f95565b9050919050565b60007fffffffff0000000000000000000000000000000000000000000000000000000082169050919050565b600073ffffffffffffffffffffffffffffffffffffffff82169050919050565b6000819050919050565b82818337600083830152505050565b60005b83811015610fec578082015181840152602081019050610fd1565b83811115610ffb576000848401525b50505050565b6000600282049050600182168061101957607f821691505b6020821081141561102d5761102c611064565b5b50919050565b61103c826110c2565b810181811067ffffffffffffffff8211171561105b5761105a611093565b5b80604052505050565b7f4e487b7100000000000000000000000000000000000000000000000000000000600052602260045260246000fd5b7f4e487b7100000000000000000000000000000000000000000000000000000000600052604160045260246000fd5b6000601f19601f8301169050919050565b7f4f776e61626c653a206e6577206f776e657220697320746865207a65726f206160008201527f6464726573730000000000000000000000000000000000000000000000000000602082015250565b7f4f776e61626c653a2063616c6c6572206973206e6f7420746865206f776e6572600082015250565b61115481610f45565b811461115f57600080fd5b50565b61116b81610f57565b811461117657600080fd5b50565b61118281610fb5565b811461118d57600080fd5b5056fea26469706673582212203d6e2e432a764471d6cee70f2b382c7b241b79c3eac85ef6a11bec28f94bae3464736f6c63430008040033",
  "linkReferences": {},
  "deployedLinkReferences": {}
}