{
  "_format": "hh-sol-artifact-1",
  "contractName": "TestUtils",
  "sourceName": "contracts/TestUtils.sol",
  "abi": [
    {
      "inputs": [
        {
          "internalType": "contract IToken",
          "name": "token",
          "type": "address"
        },
        {
          "internalType": "address",
          "name": "owner",
          "type": "address"
        }
      ],
      "name": "balanceOf",
      "outputs": [
        {
          "internalType": "uint256",
          "name": "",
          "type": "uint256"
        }
      ],
      "stateMutability": "view",
      "type": "function"
    }
  ],
  "bytecode": "0x608060405234801561001057600080fd5b506102b4806100206000396000f3fe608060405234801561001057600080fd5b506004361061002b5760003560e01c8063f7888aec14610030575b600080fd5b61004a60048036038101906100459190610132565b610060565b60405161005791906101d0565b60405180910390f35b60008273ffffffffffffffffffffffffffffffffffffffff166370a08231836040518263ffffffff1660e01b815260040161009b91906101b5565b60206040518083038186803b1580156100b357600080fd5b505afa1580156100c7573d6000803e3d6000fd5b505050506040513d601f19601f820116820180604052508101906100eb919061016e565b905092915050565b60008135905061010281610239565b92915050565b60008135905061011781610250565b92915050565b60008151905061012c81610267565b92915050565b6000806040838503121561014557600080fd5b600061015385828601610108565b9250506020610164858286016100f3565b9150509250929050565b60006020828403121561018057600080fd5b600061018e8482850161011d565b91505092915050565b6101a0816101eb565b82525050565b6101af8161022f565b82525050565b60006020820190506101ca6000830184610197565b92915050565b60006020820190506101e560008301846101a6565b92915050565b60006101f68261020f565b9050919050565b6000610208826101eb565b9050919050565b600073ffffffffffffffffffffffffffffffffffffffff82169050919050565b6000819050919050565b610242816101eb565b811461024d57600080fd5b50565b610259816101fd565b811461026457600080fd5b50565b6102708161022f565b811461027b57600080fd5b5056fea264697066735822122029f5bf1c3585f5b474cdc25f861e6e8353de1f0d1b060395e42cf27f4f0d272164736f6c63430008040033",
  "linkReferences": {},
  "deployedLinkReferences": {}
}