{
  "_format": "hh-sol-artifact-1",
  "contractName": "AppResolverStub",
  "sourceName": "contracts/l1/AppResolverStub.sol",
  "abi": [
    {
      "inputs": [
        {
          "internalType": "contract ENSRegistry",
          "name": "_ens",
          "type": "address"
        },
        {
          "internalType": "string",
          "name": "_gateway",
          "type": "string"
        }
      ],
      "stateMutability": "nonpayable",
      "type": "constructor"
    },
    {
      "inputs": [
        {
          "internalType": "bytes32",
          "name": "node",
          "type": "bytes32"
        }
      ],
      "name": "addr",
      "outputs": [
        {
          "internalType": "bytes",
          "name": "prefix",
          "type": "bytes"
        },
        {
          "internalType": "string",
          "name": "url",
          "type": "string"
        }
      ],
      "stateMutability": "view",
      "type": "function"
    },
    {
      "inputs": [
        {
          "internalType": "bytes32",
          "name": "node",
          "type": "bytes32"
        },
        {
          "components": [
            {
              "internalType": "bytes",
              "name": "signature",
              "type": "bytes"
            },
            {
              "internalType": "address",
              "name": "addr",
              "type": "address"
            }
          ],
          "internalType": "struct AppResolverStub.Proof",
          "name": "proof",
          "type": "tuple"
        }
      ],
      "name": "addrWithProof",
      "outputs": [
        {
          "internalType": "address",
          "name": "",
          "type": "address"
        }
      ],
      "stateMutability": "view",
      "type": "function"
    },
    {
      "inputs": [],
      "name": "ens",
      "outputs": [
        {
          "internalType": "contract ENSRegistry",
          "name": "",
          "type": "address"
        }
      ],
      "stateMutability": "view",
      "type": "function"
    },
    {
      "inputs": [],
      "name": "gateway",
      "outputs": [
        {
          "internalType": "string",
          "name": "",
          "type": "string"
        }
      ],
      "stateMutability": "view",
      "type": "function"
    }
  ],
  "bytecode": "0x60806040523480156200001157600080fd5b5060405162000e5c38038062000e5c8339818101604052810190620000379190620001d7565b816000806101000a81548173ffffffffffffffffffffffffffffffffffffffff021916908373ffffffffffffffffffffffffffffffffffffffff16021790555080600190805190602001906200008f92919062000098565b50505062000332565b828054600181600116156101000203166002900490600052602060002090601f016020900481019282620000d057600085556200011c565b82601f10620000eb57805160ff19168380011785556200011c565b828001600101855582156200011c579182015b828111156200011b578251825591602001919060010190620000fe565b5b5090506200012b91906200012f565b5090565b5b808211156200014a57600081600090555060010162000130565b5090565b6000620001656200015f8462000265565b62000231565b9050828152602081018484840111156200017e57600080fd5b6200018b848285620002e0565b509392505050565b600081519050620001a48162000318565b92915050565b600082601f830112620001bc57600080fd5b8151620001ce8482602086016200014e565b91505092915050565b60008060408385031215620001eb57600080fd5b6000620001fb8582860162000193565b925050602083015167ffffffffffffffff8111156200021957600080fd5b6200022785828601620001aa565b9150509250929050565b6000604051905081810181811067ffffffffffffffff821117156200025b576200025a62000316565b5b8060405250919050565b600067ffffffffffffffff82111562000283576200028262000316565b5b601f19601f8301169050602081019050919050565b6000620002a582620002c0565b9050919050565b6000620002b98262000298565b9050919050565b600073ffffffffffffffffffffffffffffffffffffffff82169050919050565b60005b8381101562000300578082015181840152602081019050620002e3565b8381111562000310576000848401525b50505050565bfe5b6200032381620002ac565b81146200032f57600080fd5b50565b610b1a80620003426000396000f3fe608060405234801561001057600080fd5b506004361061004c5760003560e01c8063116191b6146100515780633b3b57de1461006f5780633f15457f146100a057806395aa7050146100be575b600080fd5b6100596100ee565b6040516100669190610904565b60405180910390f35b61008960048036038101906100849190610634565b61018c565b6040516100979291906108b2565b60405180910390f35b6100a86102ac565b6040516100b591906108e9565b60405180910390f35b6100d860048036038101906100d3919061065d565b6102d0565b6040516100e59190610837565b60405180910390f35b60018054600181600116156101000203166002900480601f0160208091040260200160405190810160405280929190818152602001828054600181600116156101000203166002900480156101845780601f1061015957610100808354040283529160200191610184565b820191906000526020600020905b81548152906001019060200180831161016757829003601f168201915b505050505081565b6060806395aa705060e01b836040516024016101a89190610852565b604051602081830303815290604052907bffffffffffffffffffffffffffffffffffffffffffffffffffffffff19166020820180517bffffffffffffffffffffffffffffffffffffffffffffffffffffffff83818316178352505050506001808054600181600116156101000203166002900480601f01602080910402602001604051908101604052809291908181526020018280546001816001161561010002031660029004801561029c5780601f106102715761010080835404028352916020019161029c565b820191906000526020600020905b81548152906001019060200180831161027f57829003601f168201915b5050505050905091509150915091565b60008054906101000a900473ffffffffffffffffffffffffffffffffffffffff1681565b6000806102dd8484610403565b90508073ffffffffffffffffffffffffffffffffffffffff1660008054906101000a900473ffffffffffffffffffffffffffffffffffffffff1673ffffffffffffffffffffffffffffffffffffffff166302571be3866040518263ffffffff1660e01b815260040161034f9190610852565b60206040518083038186803b15801561036757600080fd5b505afa15801561037b573d6000803e3d6000fd5b505050506040513d601f19601f8201168201806040525081019061039f919061060b565b73ffffffffffffffffffffffffffffffffffffffff16146103f5576040517f08c379a00000000000000000000000000000000000000000000000000000000081526004016103ec90610926565b60405180910390fd5b826020015191505092915050565b60008060008061041685600001516104ce565b92509250925060008660405160200161042f91906107f6565b60405160208183030381529060405280519060200120905060008160405160200161045a9190610811565b60405160208183030381529060405280519060200120905060018186868660405160008152602001604052604051610495949392919061086d565b6020604051602081039080840390855afa1580156104b7573d6000803e3d6000fd5b505050602060405103519550505050505092915050565b600080600060418451146104e157600080fd5b6020840151915060408401519050606084015160001a92509193909250565b600061051361050e84610977565b610946565b90508281526020810184848401111561052b57600080fd5b610536848285610a57565b509392505050565b60008135905061054d81610ab6565b92915050565b60008151905061056281610ab6565b92915050565b60008135905061057781610acd565b92915050565b600082601f83011261058e57600080fd5b813561059e848260208601610500565b91505092915050565b6000604082840312156105b957600080fd5b6105c36040610946565b9050600082013567ffffffffffffffff8111156105df57600080fd5b6105eb8482850161057d565b60008301525060206105ff8482850161053e565b60208301525092915050565b60006020828403121561061d57600080fd5b600061062b84828501610553565b91505092915050565b60006020828403121561064657600080fd5b600061065484828501610568565b91505092915050565b6000806040838503121561067057600080fd5b600061067e85828601610568565b925050602083013567ffffffffffffffff81111561069b57600080fd5b6106a7858286016105a7565b9150509250929050565b6106ba816109ea565b82525050565b6106c9816109fc565b82525050565b6106e06106db826109fc565b610a99565b82525050565b60006106f1826109a7565b6106fb81856109bd565b935061070b818560208601610a66565b61071481610aa5565b840191505092915050565b61072881610a33565b82525050565b6000610739826109b2565b61074381856109ce565b9350610753818560208601610a66565b61075c81610aa5565b840191505092915050565b6000610774601c836109df565b91507f19457468657265756d205369676e6564204d6573736167653a0a3332000000006000830152601c82019050919050565b60006107b4601e836109ce565b91507f5369676e6572206973206e6f742074686520646f6d61696e206f776e657200006000830152602082019050919050565b6107f081610a26565b82525050565b600061080282846106cf565b60208201915081905092915050565b600061081c82610767565b915061082882846106cf565b60208201915081905092915050565b600060208201905061084c60008301846106b1565b92915050565b600060208201905061086760008301846106c0565b92915050565b600060808201905061088260008301876106c0565b61088f60208301866107e7565b61089c60408301856106c0565b6108a960608301846106c0565b95945050505050565b600060408201905081810360008301526108cc81856106e6565b905081810360208301526108e0818461072e565b90509392505050565b60006020820190506108fe600083018461071f565b92915050565b6000602082019050818103600083015261091e818461072e565b905092915050565b6000602082019050818103600083015261093f816107a7565b9050919050565b6000604051905081810181811067ffffffffffffffff8211171561096d5761096c610aa3565b5b8060405250919050565b600067ffffffffffffffff82111561099257610991610aa3565b5b601f19601f8301169050602081019050919050565b600081519050919050565b600081519050919050565b600082825260208201905092915050565b600082825260208201905092915050565b600081905092915050565b60006109f582610a06565b9050919050565b6000819050919050565b600073ffffffffffffffffffffffffffffffffffffffff82169050919050565b600060ff82169050919050565b6000610a3e82610a45565b9050919050565b6000610a5082610a06565b9050919050565b82818337600083830152505050565b60005b83811015610a84578082015181840152602081019050610a69565b83811115610a93576000848401525b50505050565b6000819050919050565bfe5b6000601f19601f8301169050919050565b610abf816109ea565b8114610aca57600080fd5b50565b610ad6816109fc565b8114610ae157600080fd5b5056fea2646970667358221220679a0b78d0a07c9d9946ddea2bf93ddcafef3033433be9b7d181809d4cbc89d764736f6c63430007060033",
  "linkReferences": {},
  "deployedLinkReferences": {}
}