{
  "_format": "hh-sol-artifact-1",
  "contractName": "Token",
  "sourceName": "contracts/Token.sol",
  "abi": [
    {
      "inputs": [
        {
          "internalType": "string",
          "name": "name",
          "type": "string"
        },
        {
          "internalType": "string",
          "name": "symbol",
          "type": "string"
        },
        {
          "internalType": "uint256",
          "name": "initialSupply",
          "type": "uint256"
        }
      ],
      "stateMutability": "nonpayable",
      "type": "constructor"
    },
    {
      "inputs": [
        {
          "internalType": "address",
          "name": "sender",
          "type": "address"
        },
        {
          "internalType": "string[]",
          "name": "urls",
          "type": "string[]"
        },
        {
          "internalType": "bytes",
          "name": "callData",
          "type": "bytes"
        },
        {
          "internalType": "bytes4",
          "name": "callbackFunction",
          "type": "bytes4"
        },
        {
          "internalType": "bytes",
          "name": "extraData",
          "type": "bytes"
        }
      ],
      "name": "OffchainLookup",
      "type": "error"
    },
    {
      "anonymous": false,
      "inputs": [
        {
          "indexed": true,
          "internalType": "address",
          "name": "owner",
          "type": "address"
        },
        {
          "indexed": true,
          "internalType": "address",
          "name": "spender",
          "type": "address"
        },
        {
          "indexed": false,
          "internalType": "uint256",
          "name": "value",
          "type": "uint256"
        }
      ],
      "name": "Approval",
      "type": "event"
    },
    {
      "anonymous": false,
      "inputs": [
        {
          "indexed": true,
          "internalType": "address",
          "name": "previousOwner",
          "type": "address"
        },
        {
          "indexed": true,
          "internalType": "address",
          "name": "newOwner",
          "type": "address"
        }
      ],
      "name": "OwnershipTransferred",
      "type": "event"
    },
    {
      "anonymous": false,
      "inputs": [
        {
          "indexed": true,
          "internalType": "address",
          "name": "from",
          "type": "address"
        },
        {
          "indexed": true,
          "internalType": "address",
          "name": "to",
          "type": "address"
        },
        {
          "indexed": false,
          "internalType": "uint256",
          "name": "value",
          "type": "uint256"
        }
      ],
      "name": "Transfer",
      "type": "event"
    },
    {
      "inputs": [
        {
          "internalType": "address",
          "name": "addr",
          "type": "address"
        },
        {
          "internalType": "bytes",
          "name": "result",
          "type": "bytes"
        }
      ],
      "name": "_getBalance",
      "outputs": [
        {
          "internalType": "uint256",
          "name": "",
          "type": "uint256"
        }
      ],
      "stateMutability": "view",
      "type": "function"
    },
    {
      "inputs": [
        {
          "internalType": "address",
          "name": "owner",
          "type": "address"
        },
        {
          "internalType": "address",
          "name": "spender",
          "type": "address"
        }
      ],
      "name": "allowance",
      "outputs": [
        {
          "internalType": "uint256",
          "name": "",
          "type": "uint256"
        }
      ],
      "stateMutability": "view",
      "type": "function"
    },
    {
      "inputs": [
        {
          "internalType": "address",
          "name": "spender",
          "type": "address"
        },
        {
          "internalType": "uint256",
          "name": "amount",
          "type": "uint256"
        }
      ],
      "name": "approve",
      "outputs": [
        {
          "internalType": "bool",
          "name": "",
          "type": "bool"
        }
      ],
      "stateMutability": "nonpayable",
      "type": "function"
    },
    {
      "inputs": [
        {
          "internalType": "address",
          "name": "addr",
          "type": "address"
        }
      ],
      "name": "balanceOf",
      "outputs": [
        {
          "internalType": "uint256",
          "name": "balance",
          "type": "uint256"
        }
      ],
      "stateMutability": "view",
      "type": "function"
    },
    {
      "inputs": [
        {
          "internalType": "bytes",
          "name": "result",
          "type": "bytes"
        },
        {
          "internalType": "bytes",
          "name": "extraData",
          "type": "bytes"
        }
      ],
      "name": "balanceOfWithSig",
      "outputs": [
        {
          "internalType": "uint256",
          "name": "",
          "type": "uint256"
        }
      ],
      "stateMutability": "view",
      "type": "function"
    },
    {
      "inputs": [],
      "name": "decimals",
      "outputs": [
        {
          "internalType": "uint8",
          "name": "",
          "type": "uint8"
        }
      ],
      "stateMutability": "view",
      "type": "function"
    },
    {
      "inputs": [
        {
          "internalType": "address",
          "name": "spender",
          "type": "address"
        },
        {
          "internalType": "uint256",
          "name": "subtractedValue",
          "type": "uint256"
        }
      ],
      "name": "decreaseAllowance",
      "outputs": [
        {
          "internalType": "bool",
          "name": "",
          "type": "bool"
        }
      ],
      "stateMutability": "nonpayable",
      "type": "function"
    },
    {
      "inputs": [],
      "name": "getSigner",
      "outputs": [
        {
          "internalType": "address",
          "name": "",
          "type": "address"
        }
      ],
      "stateMutability": "view",
      "type": "function"
    },
    {
      "inputs": [
        {
          "internalType": "address",
          "name": "spender",
          "type": "address"
        },
        {
          "internalType": "uint256",
          "name": "addedValue",
          "type": "uint256"
        }
      ],
      "name": "increaseAllowance",
      "outputs": [
        {
          "internalType": "bool",
          "name": "",
          "type": "bool"
        }
      ],
      "stateMutability": "nonpayable",
      "type": "function"
    },
    {
      "inputs": [],
      "name": "name",
      "outputs": [
        {
          "internalType": "string",
          "name": "",
          "type": "string"
        }
      ],
      "stateMutability": "view",
      "type": "function"
    },
    {
      "inputs": [],
      "name": "owner",
      "outputs": [
        {
          "internalType": "address",
          "name": "",
          "type": "address"
        }
      ],
      "stateMutability": "view",
      "type": "function"
    },
    {
      "inputs": [],
      "name": "renounceOwnership",
      "outputs": [],
      "stateMutability": "nonpayable",
      "type": "function"
    },
    {
      "inputs": [
        {
          "internalType": "address",
          "name": "signer_",
          "type": "address"
        }
      ],
      "name": "setSigner",
      "outputs": [],
      "stateMutability": "nonpayable",
      "type": "function"
    },
    {
      "inputs": [
        {
          "internalType": "string[]",
          "name": "urls_",
          "type": "string[]"
        }
      ],
      "name": "setUrls",
      "outputs": [],
      "stateMutability": "nonpayable",
      "type": "function"
    },
    {
      "inputs": [],
      "name": "symbol",
      "outputs": [
        {
          "internalType": "string",
          "name": "",
          "type": "string"
        }
      ],
      "stateMutability": "view",
      "type": "function"
    },
    {
      "inputs": [],
      "name": "totalSupply",
      "outputs": [
        {
          "internalType": "uint256",
          "name": "",
          "type": "uint256"
        }
      ],
      "stateMutability": "view",
      "type": "function"
    },
    {
      "inputs": [
        {
          "internalType": "address",
          "name": "recipient",
          "type": "address"
        },
        {
          "internalType": "uint256",
          "name": "amount",
          "type": "uint256"
        }
      ],
      "name": "transfer",
      "outputs": [
        {
          "internalType": "bool",
          "name": "",
          "type": "bool"
        }
      ],
      "stateMutability": "nonpayable",
      "type": "function"
    },
    {
      "inputs": [
        {
          "internalType": "address",
          "name": "sender",
          "type": "address"
        },
        {
          "internalType": "address",
          "name": "recipient",
          "type": "address"
        },
        {
          "internalType": "uint256",
          "name": "amount",
          "type": "uint256"
        }
      ],
      "name": "transferFrom",
      "outputs": [
        {
          "internalType": "bool",
          "name": "",
          "type": "bool"
        }
      ],
      "stateMutability": "nonpayable",
      "type": "function"
    },
    {
      "inputs": [
        {
          "internalType": "address",
          "name": "newOwner",
          "type": "address"
        }
      ],
      "name": "transferOwnership",
      "outputs": [],
      "stateMutability": "nonpayable",
      "type": "function"
    },
    {
      "inputs": [
        {
          "internalType": "bytes",
          "name": "result",
          "type": "bytes"
        },
        {
          "internalType": "bytes",
          "name": "extraData",
          "type": "bytes"
        }
      ],
      "name": "transferWithSig",
      "outputs": [
        {
          "internalType": "bool",
          "name": "",
          "type": "bool"
        }
      ],
      "stateMutability": "nonpayable",
      "type": "function"
    },
    {
      "inputs": [
        {
          "internalType": "uint256",
          "name": "",
          "type": "uint256"
        }
      ],
      "name": "urls",
      "outputs": [
        {
          "internalType": "string",
          "name": "",
          "type": "string"
        }
      ],
      "stateMutability": "view",
      "type": "function"
    }
  ],
  "bytecode": "0x60806040523480156200001157600080fd5b5060405162003a4138038062003a41833981810160405281019062000037919062000432565b8282816003908051906020019062000051929190620002f9565b5080600490805190602001906200006a929190620002f9565b5050506200008d62000081620000a860201b60201c565b620000b060201b60201c565b6200009f33826200017660201b60201c565b5050506200078b565b600033905090565b6000600560009054906101000a900473ffffffffffffffffffffffffffffffffffffffff16905081600560006101000a81548173ffffffffffffffffffffffffffffffffffffffff021916908373ffffffffffffffffffffffffffffffffffffffff1602179055508173ffffffffffffffffffffffffffffffffffffffff168173ffffffffffffffffffffffffffffffffffffffff167f8be0079c531659141344cd1fd0a4f28419497f9722a3daafe3b4186f6b6457e060405160405180910390a35050565b600073ffffffffffffffffffffffffffffffffffffffff168273ffffffffffffffffffffffffffffffffffffffff161415620001e9576040517f08c379a0000000000000000000000000000000000000000000000000000000008152600401620001e090620004f2565b60405180910390fd5b620001fd60008383620002ef60201b60201c565b8060026000828254620002119190620005a1565b92505081905550806000808473ffffffffffffffffffffffffffffffffffffffff1673ffffffffffffffffffffffffffffffffffffffff1681526020019081526020016000206000828254620002689190620005a1565b925050819055508173ffffffffffffffffffffffffffffffffffffffff16600073ffffffffffffffffffffffffffffffffffffffff167fddf252ad1be2c89b69c2b068fc378daa952ba7f163c4a11628f55a4df523b3ef83604051620002cf919062000514565b60405180910390a3620002eb60008383620002f460201b60201c565b5050565b505050565b505050565b82805462000307906200063e565b90600052602060002090601f0160209004810192826200032b576000855562000377565b82601f106200034657805160ff191683800117855562000377565b8280016001018555821562000377579182015b828111156200037657825182559160200191906001019062000359565b5b5090506200038691906200038a565b5090565b5b80821115620003a55760008160009055506001016200038b565b5090565b6000620003c0620003ba846200055a565b62000531565b905082815260208101848484011115620003d957600080fd5b620003e684828562000608565b509392505050565b600082601f8301126200040057600080fd5b815162000412848260208601620003a9565b91505092915050565b6000815190506200042c8162000771565b92915050565b6000806000606084860312156200044857600080fd5b600084015167ffffffffffffffff8111156200046357600080fd5b6200047186828701620003ee565b935050602084015167ffffffffffffffff8111156200048f57600080fd5b6200049d86828701620003ee565b9250506040620004b0868287016200041b565b9150509250925092565b6000620004c9601f8362000590565b9150620004d68262000748565b602082019050919050565b620004ec81620005fe565b82525050565b600060208201905081810360008301526200050d81620004ba565b9050919050565b60006020820190506200052b6000830184620004e1565b92915050565b60006200053d62000550565b90506200054b828262000674565b919050565b6000604051905090565b600067ffffffffffffffff82111562000578576200057762000708565b5b620005838262000737565b9050602081019050919050565b600082825260208201905092915050565b6000620005ae82620005fe565b9150620005bb83620005fe565b9250827fffffffffffffffffffffffffffffffffffffffffffffffffffffffffffffffff03821115620005f357620005f2620006aa565b5b828201905092915050565b6000819050919050565b60005b83811015620006285780820151818401526020810190506200060b565b8381111562000638576000848401525b50505050565b600060028204905060018216806200065757607f821691505b602082108114156200066e576200066d620006d9565b5b50919050565b6200067f8262000737565b810181811067ffffffffffffffff82111715620006a157620006a062000708565b5b80604052505050565b7f4e487b7100000000000000000000000000000000000000000000000000000000600052601160045260246000fd5b7f4e487b7100000000000000000000000000000000000000000000000000000000600052602260045260246000fd5b7f4e487b7100000000000000000000000000000000000000000000000000000000600052604160045260246000fd5b6000601f19601f8301169050919050565b7f45524332303a206d696e7420746f20746865207a65726f206164647265737300600082015250565b6200077c81620005fe565b81146200078857600080fd5b50565b6132a6806200079b6000396000f3fe608060405234801561001057600080fd5b50600436106101375760003560e01c806370a08231116100b85780638da5cb5b1161007c5780638da5cb5b1461037657806395d89b4114610394578063a457c2d7146103b2578063a9059cbb146103e2578063dd62ed3e14610412578063f2fde38b1461044257610137565b806370a08231146102be578063715018a6146102ee578063796676be146102f85780637ac3c02f1461032857806381ec3dc81461034657610137565b806339509351116100ff57806339509351146101f657806352d16258146102265780635f52f060146102565780636c19e783146102865780636cc895a9146102a257610137565b806306fdde031461013c578063095ea7b31461015a57806318160ddd1461018a57806323b872dd146101a8578063313ce567146101d8575b600080fd5b61014461045e565b60405161015191906127ec565b60405180910390f35b610174600480360381019061016f91906120d6565b6104f0565b604051610181919061278c565b60405180910390f35b61019261050e565b60405161019f91906129ee565b60405180910390f35b6101c260048036038101906101bd9190612033565b610518565b6040516101cf919061278c565b60405180910390f35b6101e0610610565b6040516101ed9190612a09565b60405180910390f35b610210600480360381019061020b91906120d6565b610619565b60405161021d919061278c565b60405180910390f35b610240600480360381019061023b9190612082565b6106c5565b60405161024d91906129ee565b60405180910390f35b610270600480360381019061026b9190612153565b610841565b60405161027d91906129ee565b60405180910390f35b6102a0600480360381019061029b9190611f69565b6108c7565b005b6102bc60048036038101906102b79190612112565b610987565b005b6102d860048036038101906102d39190611f69565b610a1d565b6040516102e591906129ee565b60405180910390f35b6102f6610b67565b005b610312600480360381019061030d91906121c8565b610bef565b60405161031f91906127ec565b60405180910390f35b610330610c9b565b60405161033d91906126e0565b60405180910390f35b610360600480360381019061035b9190612153565b610cc5565b60405161036d919061278c565b60405180910390f35b61037e610db5565b60405161038b91906126e0565b60405180910390f35b61039c610ddf565b6040516103a991906127ec565b60405180910390f35b6103cc60048036038101906103c791906120d6565b610e71565b6040516103d9919061278c565b60405180910390f35b6103fc60048036038101906103f791906120d6565b610f5c565b604051610409919061278c565b60405180910390f35b61042c60048036038101906104279190611ff7565b6110ad565b60405161043991906129ee565b60405180910390f35b61045c60048036038101906104579190611f69565b611134565b005b60606003805461046d90612cb3565b80601f016020809104026020016040519081016040528092919081815260200182805461049990612cb3565b80156104e65780601f106104bb576101008083540402835291602001916104e6565b820191906000526020600020905b8154815290600101906020018083116104c957829003601f168201915b5050505050905090565b60006105046104fd61122c565b8484611234565b6001905092915050565b6000600254905090565b60006105258484846113ff565b6000600160008673ffffffffffffffffffffffffffffffffffffffff1673ffffffffffffffffffffffffffffffffffffffff168152602001908152602001600020600061057061122c565b73ffffffffffffffffffffffffffffffffffffffff1673ffffffffffffffffffffffffffffffffffffffff168152602001908152602001600020549050828110156105f0576040517f08c379a00000000000000000000000000000000000000000000000000000000081526004016105e79061290e565b60405180910390fd5b610604856105fc61122c565b858403611234565b60019150509392505050565b60006012905090565b60006106bb61062661122c565b84846001600061063461122c565b73ffffffffffffffffffffffffffffffffffffffff1673ffffffffffffffffffffffffffffffffffffffff16815260200190815260200160002060008873ffffffffffffffffffffffffffffffffffffffff1673ffffffffffffffffffffffffffffffffffffffff168152602001908152602001600020546106b69190612b7e565b611234565b6001905092915050565b6000806000838060200190518101906106de91906121f1565b91509150600860008673ffffffffffffffffffffffffffffffffffffffff1673ffffffffffffffffffffffffffffffffffffffff16815260200190815260200160002060009054906101000a900460ff161561073f5760009250505061083b565b60006107a28284886040516020016107589291906126b4565b6040516020818303038152906040528051906020012060405160200161077e919061268e565b6040516020818303038152906040528051906020012061168090919063ffffffff16565b90508073ffffffffffffffffffffffffffffffffffffffff16600760009054906101000a900473ffffffffffffffffffffffffffffffffffffffff1673ffffffffffffffffffffffffffffffffffffffff1614610834576040517f08c379a000000000000000000000000000000000000000000000000000000000815260040161082b9061294e565b60405180910390fd5b8293505050505b92915050565b60008083838101906108539190611f92565b905060006108608261172f565b90506108b08288888080601f016020809104026020016040519081016040528093929190818152602001838380828437600081840152601f19601f820116905080830192505050505050506106c5565b816108bb9190612b7e565b92505050949350505050565b6108cf61122c565b73ffffffffffffffffffffffffffffffffffffffff166108ed610db5565b73ffffffffffffffffffffffffffffffffffffffff1614610943576040517f08c379a000000000000000000000000000000000000000000000000000000000815260040161093a9061292e565b60405180910390fd5b80600760006101000a81548173ffffffffffffffffffffffffffffffffffffffff021916908373ffffffffffffffffffffffffffffffffffffffff16021790555050565b61098f61122c565b73ffffffffffffffffffffffffffffffffffffffff166109ad610db5565b73ffffffffffffffffffffffffffffffffffffffff1614610a03576040517f08c379a00000000000000000000000000000000000000000000000000000000081526004016109fa9061292e565b60405180910390fd5b8060069080519060200190610a19929190611b7c565b5050565b6000600860008373ffffffffffffffffffffffffffffffffffffffff1673ffffffffffffffffffffffffffffffffffffffff16815260200190815260200160002060009054906101000a900460ff1615610a8157610a7a8261172f565b9050610b62565b30600663ce93871560e01b84604051602401610a9d91906126e0565b604051602081830303815290604052907bffffffffffffffffffffffffffffffffffffffffffffffffffffffff19166020820180517bffffffffffffffffffffffffffffffffffffffffffffffffffffffff8381831617835250505050635f52f06060e01b85604051602001610b1391906126e0565b6040516020818303038152906040526040517f556f1830000000000000000000000000000000000000000000000000000000008152600401610b599594939291906126fb565b60405180910390fd5b919050565b610b6f61122c565b73ffffffffffffffffffffffffffffffffffffffff16610b8d610db5565b73ffffffffffffffffffffffffffffffffffffffff1614610be3576040517f08c379a0000000000000000000000000000000000000000000000000000000008152600401610bda9061292e565b60405180910390fd5b610bed6000611777565b565b60068181548110610bff57600080fd5b906000526020600020016000915090508054610c1a90612cb3565b80601f0160208091040260200160405190810160405280929190818152602001828054610c4690612cb3565b8015610c935780601f10610c6857610100808354040283529160200191610c93565b820191906000526020600020905b815481529060010190602001808311610c7657829003601f168201915b505050505081565b6000600760009054906101000a900473ffffffffffffffffffffffffffffffffffffffff16905090565b60008060008484810190610cd99190611fbb565b915091506000610d2d3389898080601f016020809104026020016040519081016040528093929190818152602001838380828437600081840152601f19601f820116905080830192505050505050506106c5565b90506000811115610d9b576001600860003373ffffffffffffffffffffffffffffffffffffffff1673ffffffffffffffffffffffffffffffffffffffff16815260200190815260200160002060006101000a81548160ff021916908315150217905550610d9a338261183d565b5b610da63384846113ff565b60019350505050949350505050565b6000600560009054906101000a900473ffffffffffffffffffffffffffffffffffffffff16905090565b606060048054610dee90612cb3565b80601f0160208091040260200160405190810160405280929190818152602001828054610e1a90612cb3565b8015610e675780601f10610e3c57610100808354040283529160200191610e67565b820191906000526020600020905b815481529060010190602001808311610e4a57829003601f168201915b5050505050905090565b60008060016000610e8061122c565b73ffffffffffffffffffffffffffffffffffffffff1673ffffffffffffffffffffffffffffffffffffffff16815260200190815260200160002060008573ffffffffffffffffffffffffffffffffffffffff1673ffffffffffffffffffffffffffffffffffffffff16815260200190815260200160002054905082811015610f3d576040517f08c379a0000000000000000000000000000000000000000000000000000000008152600401610f34906129ae565b60405180910390fd5b610f51610f4861122c565b85858403611234565b600191505092915050565b6000600860003373ffffffffffffffffffffffffffffffffffffffff1673ffffffffffffffffffffffffffffffffffffffff16815260200190815260200160002060009054906101000a900460ff1615610fc057610fbb3384846113ff565b6110a3565b30600663ce93871560e01b33604051602401610fdc91906126e0565b604051602081830303815290604052907bffffffffffffffffffffffffffffffffffffffffffffffffffffffff19166020820180517bffffffffffffffffffffffffffffffffffffffffffffffffffffffff83818316178352505050506381ec3dc860e01b8686604051602001611054929190612763565b6040516020818303038152906040526040517f556f183000000000000000000000000000000000000000000000000000000000815260040161109a9594939291906126fb565b60405180910390fd5b6001905092915050565b6000600160008473ffffffffffffffffffffffffffffffffffffffff1673ffffffffffffffffffffffffffffffffffffffff16815260200190815260200160002060008373ffffffffffffffffffffffffffffffffffffffff1673ffffffffffffffffffffffffffffffffffffffff16815260200190815260200160002054905092915050565b61113c61122c565b73ffffffffffffffffffffffffffffffffffffffff1661115a610db5565b73ffffffffffffffffffffffffffffffffffffffff16146111b0576040517f08c379a00000000000000000000000000000000000000000000000000000000081526004016111a79061292e565b60405180910390fd5b600073ffffffffffffffffffffffffffffffffffffffff168173ffffffffffffffffffffffffffffffffffffffff161415611220576040517f08c379a00000000000000000000000000000000000000000000000000000000081526004016112179061286e565b60405180910390fd5b61122981611777565b50565b600033905090565b600073ffffffffffffffffffffffffffffffffffffffff168373ffffffffffffffffffffffffffffffffffffffff1614156112a4576040517f08c379a000000000000000000000000000000000000000000000000000000000815260040161129b9061298e565b60405180910390fd5b600073ffffffffffffffffffffffffffffffffffffffff168273ffffffffffffffffffffffffffffffffffffffff161415611314576040517f08c379a000000000000000000000000000000000000000000000000000000000815260040161130b9061288e565b60405180910390fd5b80600160008573ffffffffffffffffffffffffffffffffffffffff1673ffffffffffffffffffffffffffffffffffffffff16815260200190815260200160002060008473ffffffffffffffffffffffffffffffffffffffff1673ffffffffffffffffffffffffffffffffffffffff168152602001908152602001600020819055508173ffffffffffffffffffffffffffffffffffffffff168373ffffffffffffffffffffffffffffffffffffffff167f8c5be1e5ebec7d5bd14f71427d1e84f3dd0314c0f7b2291e5b200ac8c7c3b925836040516113f291906129ee565b60405180910390a3505050565b600073ffffffffffffffffffffffffffffffffffffffff168373ffffffffffffffffffffffffffffffffffffffff16141561146f576040517f08c379a00000000000000000000000000000000000000000000000000000000081526004016114669061296e565b60405180910390fd5b600073ffffffffffffffffffffffffffffffffffffffff168273ffffffffffffffffffffffffffffffffffffffff1614156114df576040517f08c379a00000000000000000000000000000000000000000000000000000000081526004016114d69061282e565b60405180910390fd5b6114ea83838361199d565b60008060008573ffffffffffffffffffffffffffffffffffffffff1673ffffffffffffffffffffffffffffffffffffffff16815260200190815260200160002054905081811015611570576040517f08c379a0000000000000000000000000000000000000000000000000000000008152600401611567906128ae565b60405180910390fd5b8181036000808673ffffffffffffffffffffffffffffffffffffffff1673ffffffffffffffffffffffffffffffffffffffff16815260200190815260200160002081905550816000808573ffffffffffffffffffffffffffffffffffffffff1673ffffffffffffffffffffffffffffffffffffffff16815260200190815260200160002060008282546116039190612b7e565b925050819055508273ffffffffffffffffffffffffffffffffffffffff168473ffffffffffffffffffffffffffffffffffffffff167fddf252ad1be2c89b69c2b068fc378daa952ba7f163c4a11628f55a4df523b3ef8460405161166791906129ee565b60405180910390a361167a8484846119a2565b50505050565b60006041825114156116bf5760008060006020850151925060408501519150606085015160001a90506116b5868285856119a7565b9350505050611729565b6040825114156116ee5760008060208401519150604084015190506116e5858383611b32565b92505050611729565b6040517f08c379a00000000000000000000000000000000000000000000000000000000081526004016117209061284e565b60405180910390fd5b92915050565b60008060008373ffffffffffffffffffffffffffffffffffffffff1673ffffffffffffffffffffffffffffffffffffffff168152602001908152602001600020549050919050565b6000600560009054906101000a900473ffffffffffffffffffffffffffffffffffffffff16905081600560006101000a81548173ffffffffffffffffffffffffffffffffffffffff021916908373ffffffffffffffffffffffffffffffffffffffff1602179055508173ffffffffffffffffffffffffffffffffffffffff168173ffffffffffffffffffffffffffffffffffffffff167f8be0079c531659141344cd1fd0a4f28419497f9722a3daafe3b4186f6b6457e060405160405180910390a35050565b600073ffffffffffffffffffffffffffffffffffffffff168273ffffffffffffffffffffffffffffffffffffffff1614156118ad576040517f08c379a00000000000000000000000000000000000000000000000000000000081526004016118a4906129ce565b60405180910390fd5b6118b96000838361199d565b80600260008282546118cb9190612b7e565b92505081905550806000808473ffffffffffffffffffffffffffffffffffffffff1673ffffffffffffffffffffffffffffffffffffffff16815260200190815260200160002060008282546119209190612b7e565b925050819055508173ffffffffffffffffffffffffffffffffffffffff16600073ffffffffffffffffffffffffffffffffffffffff167fddf252ad1be2c89b69c2b068fc378daa952ba7f163c4a11628f55a4df523b3ef8360405161198591906129ee565b60405180910390a3611999600083836119a2565b5050565b505050565b505050565b60007f7fffffffffffffffffffffffffffffff5d576e7357a4501ddfe92f46681b20a08260001c1115611a0f576040517f08c379a0000000000000000000000000000000000000000000000000000000008152600401611a06906128ce565b60405180910390fd5b601b8460ff161480611a245750601c8460ff16145b611a63576040517f08c379a0000000000000000000000000000000000000000000000000000000008152600401611a5a906128ee565b60405180910390fd5b600060018686868660405160008152602001604052604051611a8894939291906127a7565b6020604051602081039080840390855afa158015611aaa573d6000803e3d6000fd5b505050602060405103519050600073ffffffffffffffffffffffffffffffffffffffff168173ffffffffffffffffffffffffffffffffffffffff161415611b26576040517f08c379a0000000000000000000000000000000000000000000000000000000008152600401611b1d9061280e565b60405180910390fd5b80915050949350505050565b60008060007f7fffffffffffffffffffffffffffffffffffffffffffffffffffffffffffffff84169150601b8460ff1c019050611b71868287856119a7565b925050509392505050565b828054828255906000526020600020908101928215611bcb579160200282015b82811115611bca578251829080519060200190611bba929190611bdc565b5091602001919060010190611b9c565b5b509050611bd89190611c62565b5090565b828054611be890612cb3565b90600052602060002090601f016020900481019282611c0a5760008555611c51565b82601f10611c2357805160ff1916838001178555611c51565b82800160010185558215611c51579182015b82811115611c50578251825591602001919060010190611c35565b5b509050611c5e9190611c86565b5090565b5b80821115611c825760008181611c799190611ca3565b50600101611c63565b5090565b5b80821115611c9f576000816000905550600101611c87565b5090565b508054611caf90612cb3565b6000825580601f10611cc15750611ce0565b601f016020900490600052602060002090810190611cdf9190611c86565b5b50565b6000611cf6611cf184612a49565b612a24565b90508083825260208201905082856020860282011115611d1557600080fd5b60005b85811015611d5f57813567ffffffffffffffff811115611d3757600080fd5b808601611d448982611f15565b85526020850194506020840193505050600181019050611d18565b5050509392505050565b6000611d7c611d7784612a75565b612a24565b905082815260208101848484011115611d9457600080fd5b611d9f848285612c71565b509392505050565b6000611dba611db584612a75565b612a24565b905082815260208101848484011115611dd257600080fd5b611ddd848285612c80565b509392505050565b6000611df8611df384612aa6565b612a24565b905082815260208101848484011115611e1057600080fd5b611e1b848285612c71565b509392505050565b600081359050611e328161322b565b92915050565b600081359050611e4781613242565b92915050565b600082601f830112611e5e57600080fd5b8135611e6e848260208601611ce3565b91505092915050565b60008083601f840112611e8957600080fd5b8235905067ffffffffffffffff811115611ea257600080fd5b602083019150836001820283011115611eba57600080fd5b9250929050565b600082601f830112611ed257600080fd5b8135611ee2848260208601611d69565b91505092915050565b600082601f830112611efc57600080fd5b8151611f0c848260208601611da7565b91505092915050565b600082601f830112611f2657600080fd5b8135611f36848260208601611de5565b91505092915050565b600081359050611f4e81613259565b92915050565b600081519050611f6381613259565b92915050565b600060208284031215611f7b57600080fd5b6000611f8984828501611e23565b91505092915050565b600060208284031215611fa457600080fd5b6000611fb284828501611e38565b91505092915050565b60008060408385031215611fce57600080fd5b6000611fdc85828601611e38565b9250506020611fed85828601611f3f565b9150509250929050565b6000806040838503121561200a57600080fd5b600061201885828601611e23565b925050602061202985828601611e23565b9150509250929050565b60008060006060848603121561204857600080fd5b600061205686828701611e23565b935050602061206786828701611e23565b925050604061207886828701611f3f565b9150509250925092565b6000806040838503121561209557600080fd5b60006120a385828601611e23565b925050602083013567ffffffffffffffff8111156120c057600080fd5b6120cc85828601611ec1565b9150509250929050565b600080604083850312156120e957600080fd5b60006120f785828601611e23565b925050602061210885828601611f3f565b9150509250929050565b60006020828403121561212457600080fd5b600082013567ffffffffffffffff81111561213e57600080fd5b61214a84828501611e4d565b91505092915050565b6000806000806040858703121561216957600080fd5b600085013567ffffffffffffffff81111561218357600080fd5b61218f87828801611e77565b9450945050602085013567ffffffffffffffff8111156121ae57600080fd5b6121ba87828801611e77565b925092505092959194509250565b6000602082840312156121da57600080fd5b60006121e884828501611f3f565b91505092915050565b6000806040838503121561220457600080fd5b600061221285828601611f54565b925050602083015167ffffffffffffffff81111561222f57600080fd5b61223b85828601611eeb565b9150509250929050565b600061225183836123a9565b905092915050565b61226281612bd4565b82525050565b61227961227482612bd4565b612d16565b82525050565b600061228a82612b01565b6122948185612b2f565b9350836020820285016122a685612ad7565b8060005b858110156122e1578484038952816122c28582612245565b94506122cd83612b22565b925060208a019950506001810190506122aa565b50829750879550505050505092915050565b6122fc81612bf8565b82525050565b61230b81612c04565b82525050565b61232261231d82612c04565b612d28565b82525050565b61233181612c0e565b82525050565b600061234282612b0c565b61234c8185612b40565b935061235c818560208601612c80565b61236581612ddb565b840191505092915050565b600061237b82612b17565b6123858185612b62565b9350612395818560208601612c80565b61239e81612ddb565b840191505092915050565b600081546123b681612cb3565b6123c08186612b51565b945060018216600081146123db57600181146123ed57612420565b60ff1983168652602086019350612420565b6123f685612aec565b60005b83811015612418578154818901526001820191506020810190506123f9565b808801955050505b50505092915050565b6000612436601883612b62565b915061244182612df9565b602082019050919050565b6000612459602383612b62565b915061246482612e22565b604082019050919050565b600061247c601f83612b62565b915061248782612e71565b602082019050919050565b600061249f601c83612b73565b91506124aa82612e9a565b601c82019050919050565b60006124c2602683612b62565b91506124cd82612ec3565b604082019050919050565b60006124e5602283612b62565b91506124f082612f12565b604082019050919050565b6000612508602683612b62565b915061251382612f61565b604082019050919050565b600061252b602283612b62565b915061253682612fb0565b604082019050919050565b600061254e602283612b62565b915061255982612fff565b604082019050919050565b6000612571602883612b62565b915061257c8261304e565b604082019050919050565b6000612594602083612b62565b915061259f8261309d565b602082019050919050565b60006125b7602583612b62565b91506125c2826130c6565b604082019050919050565b60006125da602583612b62565b91506125e582613115565b604082019050919050565b60006125fd602483612b62565b915061260882613164565b604082019050919050565b6000612620602583612b62565b915061262b826131b3565b604082019050919050565b6000612643601f83612b62565b915061264e82613202565b602082019050919050565b61266281612c5a565b82525050565b61267961267482612c5a565b612d44565b82525050565b61268881612c64565b82525050565b600061269982612492565b91506126a58284612311565b60208201915081905092915050565b60006126c08285612668565b6020820191506126d08284612268565b6014820191508190509392505050565b60006020820190506126f56000830184612259565b92915050565b600060a0820190506127106000830188612259565b8181036020830152612722818761227f565b905081810360408301526127368186612337565b90506127456060830185612328565b81810360808301526127578184612337565b90509695505050505050565b60006040820190506127786000830185612259565b6127856020830184612659565b9392505050565b60006020820190506127a160008301846122f3565b92915050565b60006080820190506127bc6000830187612302565b6127c9602083018661267f565b6127d66040830185612302565b6127e36060830184612302565b95945050505050565b600060208201905081810360008301526128068184612370565b905092915050565b6000602082019050818103600083015261282781612429565b9050919050565b600060208201905081810360008301526128478161244c565b9050919050565b600060208201905081810360008301526128678161246f565b9050919050565b60006020820190508181036000830152612887816124b5565b9050919050565b600060208201905081810360008301526128a7816124d8565b9050919050565b600060208201905081810360008301526128c7816124fb565b9050919050565b600060208201905081810360008301526128e78161251e565b9050919050565b6000602082019050818103600083015261290781612541565b9050919050565b6000602082019050818103600083015261292781612564565b9050919050565b6000602082019050818103600083015261294781612587565b9050919050565b60006020820190508181036000830152612967816125aa565b9050919050565b60006020820190508181036000830152612987816125cd565b9050919050565b600060208201905081810360008301526129a7816125f0565b9050919050565b600060208201905081810360008301526129c781612613565b9050919050565b600060208201905081810360008301526129e781612636565b9050919050565b6000602082019050612a036000830184612659565b92915050565b6000602082019050612a1e600083018461267f565b92915050565b6000612a2e612a3f565b9050612a3a8282612ce5565b919050565b6000604051905090565b600067ffffffffffffffff821115612a6457612a63612dac565b5b602082029050602081019050919050565b600067ffffffffffffffff821115612a9057612a8f612dac565b5b612a9982612ddb565b9050602081019050919050565b600067ffffffffffffffff821115612ac157612ac0612dac565b5b612aca82612ddb565b9050602081019050919050565b60008190508160005260206000209050919050565b60008190508160005260206000209050919050565b600081549050919050565b600081519050919050565b600081519050919050565b6000600182019050919050565b600082825260208201905092915050565b600082825260208201905092915050565b600082825260208201905092915050565b600082825260208201905092915050565b600081905092915050565b6000612b8982612c5a565b9150612b9483612c5a565b9250827fffffffffffffffffffffffffffffffffffffffffffffffffffffffffffffffff03821115612bc957612bc8612d4e565b5b828201905092915050565b6000612bdf82612c3a565b9050919050565b6000612bf182612c3a565b9050919050565b60008115159050919050565b6000819050919050565b60007fffffffff0000000000000000000000000000000000000000000000000000000082169050919050565b600073ffffffffffffffffffffffffffffffffffffffff82169050919050565b6000819050919050565b600060ff82169050919050565b82818337600083830152505050565b60005b83811015612c9e578082015181840152602081019050612c83565b83811115612cad576000848401525b50505050565b60006002820490506001821680612ccb57607f821691505b60208210811415612cdf57612cde612d7d565b5b50919050565b612cee82612ddb565b810181811067ffffffffffffffff82111715612d0d57612d0c612dac565b5b80604052505050565b6000612d2182612d32565b9050919050565b6000819050919050565b6000612d3d82612dec565b9050919050565b6000819050919050565b7f4e487b7100000000000000000000000000000000000000000000000000000000600052601160045260246000fd5b7f4e487b7100000000000000000000000000000000000000000000000000000000600052602260045260246000fd5b7f4e487b7100000000000000000000000000000000000000000000000000000000600052604160045260246000fd5b6000601f19601f8301169050919050565b60008160601b9050919050565b7f45434453413a20696e76616c6964207369676e61747572650000000000000000600082015250565b7f45524332303a207472616e7366657220746f20746865207a65726f206164647260008201527f6573730000000000000000000000000000000000000000000000000000000000602082015250565b7f45434453413a20696e76616c6964207369676e6174757265206c656e67746800600082015250565b7f19457468657265756d205369676e6564204d6573736167653a0a333200000000600082015250565b7f4f776e61626c653a206e6577206f776e657220697320746865207a65726f206160008201527f6464726573730000000000000000000000000000000000000000000000000000602082015250565b7f45524332303a20617070726f766520746f20746865207a65726f20616464726560008201527f7373000000000000000000000000000000000000000000000000000000000000602082015250565b7f45524332303a207472616e7366657220616d6f756e742065786365656473206260008201527f616c616e63650000000000000000000000000000000000000000000000000000602082015250565b7f45434453413a20696e76616c6964207369676e6174757265202773272076616c60008201527f7565000000000000000000000000000000000000000000000000000000000000602082015250565b7f45434453413a20696e76616c6964207369676e6174757265202776272076616c60008201527f7565000000000000000000000000000000000000000000000000000000000000602082015250565b7f45524332303a207472616e7366657220616d6f756e742065786365656473206160008201527f6c6c6f77616e6365000000000000000000000000000000000000000000000000602082015250565b7f4f776e61626c653a2063616c6c6572206973206e6f7420746865206f776e6572600082015250565b7f5369676e6572206973206e6f7420746865207369676e6572206f66207468652060008201527f746f6b656e000000000000000000000000000000000000000000000000000000602082015250565b7f45524332303a207472616e736665722066726f6d20746865207a65726f20616460008201527f6472657373000000000000000000000000000000000000000000000000000000602082015250565b7f45524332303a20617070726f76652066726f6d20746865207a65726f2061646460008201527f7265737300000000000000000000000000000000000000000000000000000000602082015250565b7f45524332303a2064656372656173656420616c6c6f77616e63652062656c6f7760008201527f207a65726f000000000000000000000000000000000000000000000000000000602082015250565b7f45524332303a206d696e7420746f20746865207a65726f206164647265737300600082015250565b61323481612bd4565b811461323f57600080fd5b50565b61324b81612be6565b811461325657600080fd5b50565b61326281612c5a565b811461326d57600080fd5b5056fea2646970667358221220931f54b6f64509f0cbbfdd7b52fa5d13ce9c121e8b0e8e691db2d93d25fac6d264736f6c63430008040033",
  "linkReferences": {},
  "deployedLinkReferences": {}
}